:020000040801F1
:1000000010230220AD010108352A0108B7010108BB
:10001000312A0108270D0108F73D01080000000002
:10002000000000000000000000000000212F010877
:10003000A917010800000000C301010805300108EC
:10004000C7010108C7010108C7010108C70101086C
:10005000C7010108C7010108C7010108C70101085C
:1000600009180108C7010108C7010108C7010108F3
:10007000C7010108C7010108C7010108C70101083C
:10008000F90D0108C7010108C7010108C7010108EE
:10009000C7010108C7010108C70101083518010897
:1000A000C7010108C7010108C7010108C70101080C
:1000B000DD310108C701010809330108C701010842
:1000C000C7010108C7010108C7010108C7010108EC
:1000D000C7010108D93801083D3A0108C7010108E4
:1000E000AD170108C7010108C7010108C7010108D0
:1000F000C7010108C7010108C7010108C7010108BC
:10010000C7010108C701010881330108C7010108BF
:10011000C7010108C701010825340108C70101080A
:10012000C7010108C7010108C7010108C70101088B
:10013000C7010108C7010108C7010108C70101087B
:10014000C7010108C7010108C7010108C70101086B
:10015000C7010108C7010108C7010108C70101085B
:10016000C7010108C7010108C7010108C70101084B
:10017000C7010108C7010108C7010108C70101083B
:10018000C7010108C7010108C7010108C70101082B
:10019000C7010108C7010108DFF80CD000F096FB89
:1001A00000480047D1170208102302200648804764
:1001B00006480047FEE7FEE7FEE7FEE7FEE7FEE74C
:1001C000FEE7FEE7FEE7FEE70930010899010108B6
:1001D00040EA01039B0703D009E008C9121F08C0C9
:1001E000042AFAD203E011F8013B00F8013B521E49
:1001F000F9D27047D2B201E000F8012B491EFBD2C0
:1002000070470022F6E710B513460A460446194621
:10021000FFF7F0FF204610BD421E12F8013F002BF1
:10022000FBD111F8013B02F8013B002BF9D17047DB
:10023000421C10F8011B0029FBD1801A704730B511
:1002400004460020034600E05B1C934203D2E05CBE
:10025000CD5C401BF8D030BD2DE9FE4F804681EAD1
:100260000300C00F0C46009021F0004123F0004530
:10027000B8EB0200A94105D24046214690461C46F3
:100280000B46024623F00040104347D0270DC7F32A
:100290000A00C3F30A510290401A019040286BDA19
:1002A000C3F3130040F4801B0098924620B1002352
:1002B000D2EB030A63EB0B0B01985946C0F14002E5
:1002C000504600F0D5F906460D4650465946019A6B
:1002D00000F0EDF910EB08006141002487EA1152AB
:1002E00084EAE7731A4340D0009A62B3019A012A64
:1002F0004FEA075215DC001B61EB02014FF0004290
:1003000002EA0752CDE90042001C41F58011324655
:100310002B4600F024FA03B0BDE8F08F404621469A
:10032000F9E7001B61EB0201001C41F58013001886
:100330005B412018A2F5001747EB030140EAD57096
:10034000B6196D4111E06D084FEA360645EAC075F1
:100350004FEA0752001B61EB0201001C41F58011BE
:1003600049084FEA30000019514132462B4603B08C
:10037000BDE8F04F00F0E4B90098012240000023EE
:10038000D0EB020263EBE073009821464FEAE07481
:10039000B8EB000061EB0401E9E783F000435BE7A1
:1003A00081F0004158E72DE9FE4F81EA030404F093
:1003B000004421F0004100944FF0000B23F0004373
:1003C00050EA01045ED052EA03045BD0C3F30A543E
:1003D000C1F30A552C44A4F2F3340194A0FB025457
:1003E000C1F3130141F48011C3F3130343F48013E9
:1003F00001FB024400FB034E840A970A44EA81543D
:1004000047EA8357A4FB076802958D0A05FB078519
:100410004FEA932C04FB0C542705029D4FEA065823
:1004200047EA1637B5EB08056EEB070C870E920E00
:1004300047EA811742EA8312A7FB0201B6EB0B01E0
:1004400064EB00042B0D43EA0C335E1844EB1C50A4
:10045000DA465146E7FB0201C5F313044FEA0B33BA
:1004600043EA14534FEA0432019C43EA0603A4F121
:100470000C040294009CCDE900B400F070F903B0C4
:10048000BDE8F08F00200146F9E72DE9F04D81EA43
:10049000030404F0004B21F0004514464FF0000A1D
:1004A00023F0004150EA050220D054EA01021DD099
:1004B000C5F30A570246C5F31303C1F31300C1F392
:1004C0000A5640F4801543F48013A7EB0608101B6E
:1004D000D64608F2FD3873EB050002D308F1010897
:1004E00001E092185B41B8F1000F03DA00200146E9
:1004F000BDE8F08D00204FF48011064684460EE0E2
:10050000171B73EB050705D3121B63EB05030643AB
:100510004CEA010C49084FEA300092185B4150EA5E
:100520000107EDD152EA030012D082EA040083EA07
:100530000501084305D0101BAB4106D20122002360
:1005400006E000224FF0004302E06FF0010253107A
:100550001AEB06004CEB085110EB0A0041EB0B01C3
:10056000BDE8F04D00F0ECB80EB5C10F80EAE070C8
:100570000844CA07002140F233438DE80E000A46C2
:100580000B4600F0ECF803B000BD0EB540F233416D
:1005900002910021CDE900110A460B4600F0DFF878
:1005A00003B000BD70B5C1F30A5201F0004500244C
:1005B000C1F3130140F2FF3341F480119A4201DA92
:1005C000002070BD40F233439A42A2F2334203DC72
:1005D000524200F05CF800E090402C43F1D04042E1
:1005E00070BD00F0004230F000400AD0C10D01F5AE
:1005F0006071C0F3160042EA0151C208400711437E
:10060000704700200146704730B5041E71F10004A8
:1006100004DB4FF00044404264EB0101141E73F10F
:10062000000405DB1C464FF00043524263EB040319
:10063000994208BF904230BD01F0004330B421F030
:10064000004150EA010206D00A0DA2F56072C1F322
:100650001301002A02DC30BC00207047440F44EA3A
:10066000C104C100E01830BC00EBC25000F031B84A
:10067000202A04DB203A00FA02F100207047914062
:10068000C2F1200320FA03F3194390407047202A57
:1006900004DB203A21FA02F00021704721FA02F32C
:1006A000D040C2F120029140084319467047202AE9
:1006B00006DBCB17203A41FA02F043EAE07306E08A
:1006C00041FA02F3D040C2F120029140084319469A
:1006D00070470029A8BF7047401C490008BF20F0A0
:1006E0000100704710B4B0FA80FC00FA0CF050EA38
:1006F000010404BF10BC704749B1CCF1200421FAB9
:1007000004F411FA0CF118BF012121430843A3EBB3
:100710000C01CB1D4FEA00614FEA102042BF0020C0
:1007200010BC704700EBC35010440029A4BF10BC9C
:100730007047401C490008BF20F0010010BC704702
:1007400010B5141E73F1000408DA401C41F10001D9
:1007500092185B411A4301D120F0010010BD2DE930
:10076000F04D92469B4611B1B1FA81F202E0B0FA27
:1007700080F220329046FFF77BFF04460F4640EAA6
:100780000A0041EA0B0153465A46084313D011466A
:1007900053EA010019D0C8F140025046FFF777FF35
:1007A00005460E46504659464246FFF761FF08434C
:1007B00005D0012004E020463946BDE8F08D002038
:1007C000054346EAE0762C4337430A986305E40A7A
:1007D000A0EB08000022FD0A44EA47540A3002D583
:1007E00000200146E9E7010510196941DDE90845E6
:1007F00000196941BDE8F04DA2E72DE9F04D002355
:100800001A461B1A8A4103DB00200146BDE8F08D21
:10081000C1F30A52C1F3130141F480154FF0000BEC
:10082000D10702D100186D41521E0027044640F244
:10083000FF11384601EB620A3E4680460246002020
:100840004FF48011FFF723FFC2197141BB1846EB2B
:100850000100B4EB030C75EB000C04D3E41A65EB58
:10086000000517460E46241908F101006D41804627
:100870003428E3DDF91946EB0600091BA84103D231
:100880004FF0FF32134601E0002213461BEB070036
:1008900046EB0A51BDE8F04DFFF752BF30B5041EDC
:1008A00071F1000404DB4FF00044404264EB0101AD
:1008B000141E73F1000405DB1C464FF00043524246
:1008C00063EB04038B4208BF824230BD064C074DE8
:1008D00006E0E06840F0010394E807009847103410
:1008E000AC42F6D3FFF75CFC70D6030890D6030841
:1008F00070B58C1810F8015B15F0070301D110F8E2
:10090000013B2A1106D110F8012B03E010F8016B0E
:1009100001F8016B5B1EF9D12B0705D40023521E91
:100920000DD401F8013BFAE710F8013BCB1A921CF9
:1009300003E013F8015B01F8015B521EF9D5A142F7
:10094000D8D3002070BD000000B585B00020009015
:1009500001208DF804008DF805004FF4602002900E
:100960000020039008208DF810006946294800F007
:10097000ADF9032301221146264800F0ECF80323C9
:1009800002221146234800F0E6F803231A461946CE
:10099000204800F0E0F80323042206211D4800F05F
:1009A000DAF80323052207211A4800F0D4F80323BC
:1009B00006220821174800F0CEF803230722092158
:1009C000144800F0C8F8032308221021114800F051
:1009D000C2F8012000F044F901210E4800F02AF984
:1009E00001210C4800F01BF900BF2021094800F04C
:1009F00063F90028F9D0074800F090F900BF0548D6
:100A000000F050F90028FAD10121024800F01DF948
:100A100005B000BD0008024000B585B00020009080
:100A200001208DF804008DF805004FF4602002903D
:100A30000020039004208DF8100069461C4800F047
:100A400045F9032301220421194800F084F8032307
:100A500002221946164800F07EF803231A460521A3
:100A6000134800F078F8032304220C21104800F00A
:100A700072F801210E4800F0DDF801210C4800F069
:100A8000CEF800BF20210A4800F016F90028F9D05E
:100A9000074800F043F900BF054800F003F90028BB
:100AA000FAD10121024800F0D0F805B000BD0000E5
:100AB000000C024000B585B0002000908DF80400C5
:100AC00001208DF805004FF4602002900020039073
:100AD00001208DF810006946134800F0F7F8032351
:100AE00001220C21104800F036F801210E4800F0D8
:100AF000A1F801210C4800F092F800BF20210A481B
:100B000000F0DAF80028F9D0074800F007F900BF34
:100B1000054800F0C7F80028FAD10121024800F08A
:100B200094F805B000BD00000018024070B50546FD
:100B30000C4645B900214FF4807002F019F82046A8
:100B400002F00AF806E00121204602F011F8002028
:100B500002F002F870BDF0B50446154600200022F0
:100B6000122905D1E06D20F007001843E06520E070
:100B7000092911DDE068A1F10A0606EB4607072600
:100B800006FA07F29043A1F10A0606EB460603FABD
:100B900006F21043E0600CE0206901EB41070726F4
:100BA00006FA07F2904301EB410603FA06F21043FE
:100BB0002061072D0FDA606B6E1E06EB86071F267D
:100BC00006FA07F290436E1E06EB860601FA06F25D
:100BD0001043606322E00D2D0FDA206BEE1F06EB51
:100BE00086071F2606FA07F29043EE1F06EB8606DD
:100BF00001FA06F21043206310E0E06AA5F10D0649
:100C000006EB86071F2606FA07F29043A5F10D06AC
:100C100006EB860601FA06F21043E062F0BD21B150
:100C2000826842F00102826003E0826822F00102E1
:100C30008260704721B1826842F48072826003E072
:100C4000826822F480728260704721B1826842F427
:100C5000A002826003E0826822F4A00282607047F2
:100C600068B10E49096841F400010C4A116000BFE7
:100C70000B49096841F48061094A11600DE0074998
:100C8000096821F40001054A116000BF04490968A0
:100C900021F48061024A116000BF704708080240D9
:100CA00020180040014600208A6802F004020AB1C0
:100CB000012000E00020704702460020936D0B40A9
:100CC0000BB1012000E000207047000030B5024663
:100CD0000020002350680F4C20400D790C6844EA36
:100CE00005242043506090680B4C2040D1E9025409
:100CF0002C434D7944EA450420439060D06A20F4A7
:100D000070000C7C641EE4B2234340EA0350D062BE
:100D100030BD0000FFFEF0FFFDF7F1FF816841F0FC
:100D200004018160704700BFFEE71FB52C200090D2
:100D3000002001900390694600F044F82C200090B8
:100D40000020019003906946102000F03BF801213B
:100D5000002000F00DF80121102000F009F8012119
:100D6000002000F01BF80121102000F017F81FBD33
:100D700041B1094A12684FF4805383401A43064B2D
:100D80001A6007E0044A12684FF4805383409A4384
:100D9000014B1A60704700000074004039B1084AE6
:100DA0001268012383401A43054B1A6006E0044A87
:100DB0001268012383409A43014B1A607047000078
:100DC0000074004030B5002200230A4C226840F62F
:100DD000FE748440A243D1E900452C438D682C4326
:100DE000CD6844EA050303FA00F42243014C226073
:100DF00030BD00000074004070B5FE4CFE4D72B670
:100E0000FE49080100F0A6FC00282FD0FC4800781D
:100E1000FC49088012F034FBFB4908700846007852
:100E200001287DD144F6206012F024FBF7480068C9
:100E30004068F749B0FBF1F201FB1200F349096881
:100E40004860F0480178F14800680068EF4A12688D
:100E500052688154ED480068406840B9E94800880C
:100E6000422803D10120E9490968486097E2E74830
:100E700000684068012816D1E24800884D2804D156
:100E80000220E2490968486089E2DE480088422879
:100E900004D10120DD490968486080E20020DB4977
:100EA000096848607BE2D94800684068022816D18A
:100EB000D4480088502804D10020D44909684860EB
:100EC0006DE2D0480088422804D10120CF4909684A
:100ED000486064E20320CD49096848605FE2CB487E
:100EE00000684068CA49491E884206D2C74800685F
:100EF0004068401CC54909684860C44800684068AB
:100F0000C349B0FBF1F201FB1200C0490968486017
:100F1000BE48006840683628A8D9BC48006800E090
:100F200009E04068B9490968096988429ED30020F0
:100F300012F0A0FA33E2B448007802287ED144F6D9
:100F4000206012F097FAB14800684069401CAF4930
:100F500009684861AF48007838B9AA4800880D2868
:100F600084D10120AB49087019E2AA480078012811
:100F700013D1A44800880A2803D10220A54908708B
:100F80000DE2A04800880D2803D10120A149087076
:100F900005E200209F49087001E29E48007802287F
:100FA0000BD1984800880D2803D103209949087077
:100FB000F5E1002097490870F1E196480078032890
:100FC0001FD1904800880A280FD104209149087049
:100FD00000208E49096848608C48006840698B4948
:100FE0000968886100206061D9E1864800880D2881
:100FF00003D1012087490870D1E10020854908709C
:10100000CDE18248006840688149B0FBF1F201FB04
:1010100012007E49096848607A4801787B48006878
:1010200000687A4A126852688154E0687749096812
:101030008860764800684068401C00E021E0734901
:101040000968486071480068808880B26F49096803
:1010500048606E48006840686061A069401CA061FB
:101060006A480068006900288AD0684800684069BA
:1010700066490968096988428AD3002012F0FAF9A2
:101080008DE11E2012F0F6F95E4801786248006892
:10109000D0F8002260480068D0F80002401C5E4B87
:1010A0001B68C3F800025C48006881545A48006815
:1010B000B0F80002C0F3080057490968C1F80002FF
:1010C00010F0AAFE534908700846007802287DD126
:1010D0005248FFF7ADF8524908604F480068D0F811
:1010E00000124F480068001D814285D34A490968B3
:1010F000D1F800224A490968091D511A464A126866
:10110000881847490A684549FFF799F83D4908801A
:10111000084600880028B3D106F07EFD39490880D2
:101120000846008810B1002006F07CFD002008F081
:10113000EBFB022012F0AAF900203449096848604C
:1011400032490968886031490968C86032480068D6
:10115000B0F80002001F2B490880002030490860C9
:10116000284801880088401C264A10802A480068C8
:10117000405C2B49096841EA006029490860104633
:1011800001880088401C108023480068405C244986
:10119000096841EA00402249086010460188008839
:1011A000401C10801C480068405C1D49096841EAE9
:1011B00000201B490860104601880088401C1080F0
:1011C00015480068405C1649096800E045E008439E
:1011D00013490860084600680C4909680861002046
:1011E0000A4909688861094909684861094908701C
:1011F000064917E0E0CD0120FEC0012000000240BA
:101200002C0100203A000020380000202C00002093
:10121000743A0100400000203000002011D0030883
:101220003C00002009684860604909688860E06007
:1012300060615F485D49096808605C490968086841
:101240005C49FEF7DEFF00205B490968C1F8000237
:1012500044F6206012F00EF9A1E05848FEF7E8FFCE
:101260005749086054480068D0F800125448006894
:10127000001D8142F0D350490968D1F8002250493D
:101280000968091D511A4C4A126888184C490A68A5
:101290004A49FEF7D4FF4B490880084600880028D9
:1012A0007DD106F0B9FC474908800846008810B196
:1012B000002006F0B7FC002008F026FB012012F009
:1012C000E5F80020394909684860384909688860AC
:1012D00036490968C86038480068B0F80002001F45
:1012E000384908800020364908603648018800885F
:1012F000401C344A108030480068405C304909681E
:1013000041EA00602E490860104601880088401CB0
:10131000108029480068405C2949096841EA00407A
:1013200027490860104601880088401C1080224828
:101330000068405C2249096841EA002020490860B1
:10134000104601880088401C10801B480068405CE3
:101350001B49096808431A49086008460068F438C0
:1013600012490968086112481049096808600F4964
:10137000096808680F49FEF744FF002009F000FAE9
:10138000002009F0F7F9002007F04CFF00200A497F
:101390000968C1F8000244F6206012F06BF80A49AF
:1013A000080100F0E5F862B670BD00002C000020D6
:1013B000DC430020743A01003000002003D0030811
:1013C0003C0000203A0000200000024000B58BB035
:1013D000364800F0D9F83648009036480190002091
:1013E0000290282003900020049080200590400067
:1013F00006908000079020200890000209900020AD
:101400000A906946294800F0B1F90121274800F007
:1014100095F926488C3000F0B7F827480090274807
:10142000019000200290142003900020049080205E
:101430000590400006908000079020200890000250
:10144000099000200A90694618488C3000F08EF907
:10145000012116488C3000F071F91448643000F016
:1014600093F817480090174801900020029001203F
:10147000039000200490059006900790202008908B
:101480000002099000200A9069460848643000F084
:101490006DF9012202210548643000F06BF801214A
:1014A0000248643000F04AF90BB000BD0800024069
:1014B0004C0802405C3A00204C0C0240AC3A002040
:1014C000044400402C01002000B58BB0234800F0FC
:1014D0005BF82348009023480190102002900120DF
:1014E00003900020049080200590800006908000EA
:1014F0000790202008900002099000200A90694679
:10150000164800F033F90121144800F017F9134888
:10151000143000F039F8144800901448019000206D
:101520000290052003900020049080200590400048
:10153000069080000790202008900002099000206B
:101540000A9069460548143000F010F9012103485B
:10155000143000F0F3F80BB000BD0000440402406A
:1015600020740040380100204C180240D43A00207A
:10157000486070471AB103680B43036002E00368D8
:101580008B4303607047000001684FF6FE72114004
:1015900001600021016041608160C160654988424D
:1015A00008D164490839496841F00F01614A083A95
:1015B0005160BEE05F491431884208D15D49083965
:1015C000496841F0F0015B4A083A5160B1E059497D
:1015D0002831884208D157490839496841F4706177
:1015E000544A083A5160A4E052493C31884208D13B
:1015F00050490839496841F470414E4A083A5160EF
:1016000097E04C495031884208D14A490839496825
:1016100041F47021474A083A51608AE045496431F3
:10162000884208D143490839496841F47001414A68
:10163000083A51607DE03F497831884208D13D4900
:101640000839496841F070613A4A083A516070E0DF
:1016500038498C31884208D136490839496841F007
:101660007041344A083A516063E03349884206D1F8
:10167000011F096841F00F01021F116059E02E4956
:101680001431884208D12C49091F096841F0F00142
:10169000294A121F11604CE027492831884208D19D
:1016A0002549091F096841F47061234A121F11601E
:1016B0003FE021493C31884208D11F49091F096890
:1016C00041F470411C4A121F116032E01A49503136
:1016D000884208D11849091F096841F47021164A47
:1016E000121F116025E014496431884208D1124963
:1016F000091F096841F470010F4A121F116018E0B8
:101700000D497831884208D10B49091F096841F019
:101710007061094A121F11600BE007498C31884241
:1017200007D10549091F096841F07041024A121F9B
:1017300011607047080002400804024021B10268AD
:1017400042F00102026004E002684FF6FE731A40A4
:101750000260704710B50246002000230B6803EAC0
:1017600002040CB1012000E0002010BD10B50022E1
:10177000026847F6F0739A430C6A8B6823430C693E
:1017800023434C6923438C692343CC6923434C6A2C
:1017900023438C6A23431A430260CB6843600B687F
:1017A00083604B68C36010BD7047000010B52020F7
:1017B00000F056F838B12021114800F068FE2020D2
:1017C00000F048F81BE04FF4006000F049F858B111
:1017D00020210B4800F05BFE08B90DF087FF4FF4A5
:1017E000006000F037F80AE04FF4005000F038F8DD
:1017F00028B1012003490870400300F02BF810BD08
:10180000000C01401400002010B5042000F028F85E
:1018100050B1042000F01EF80421044800F037FE07
:1018200010B901200249087010BD0000000C0140F1
:101830000A01002010B5102000F012F830B110217C
:10184000034800F024FE102000F004F810BD000052
:10185000000C014001490860704700001404014079
:10186000014600200022074B1B6803EA0102054BDA
:1018700014331B680B4013B10AB1012000E00020B3
:101880007047000000040140002123498279002AAA
:101890003AD00A46126803689A430B461A600A1D3A
:1018A000126803689A430B1D1A60027911440A6892
:1018B00003681A430A60184A0832126803689A4398
:1018C000154B08331A601A1D126803689A43124BAD
:1018D0000C331A604279102A0ED11A1F126803685D
:1018E0001A430D4B08331A601A1D126803681A4315
:1018F000094B0C331A600DE00749427911440A681C
:1019000003681A430A6005E0027911440A68036813
:101910009A430A6070470000000401400249C96808
:101920000143014AD16070470020024030B50446AF
:1019300006257C20FFF7F2FF4FF4302000F08CF8F2
:101940000546062D17D10D48006940F002000B49ED
:10195000086108464461006940F0400008614FF4A6
:10196000302000F079F805460448006943F6FD711F
:10197000084002490861284630BD000000200240AE
:1019800006201249C96801F0010109B101201CE0DB
:101990000E49C96801F0040109B1032015E00B49A3
:1019A000C96801F0080109B104200EE00749C968BF
:1019B00001F0100109B1052007E00449C96801F0F0
:1019C000400109B1072000E00620704700200240D6
:1019D0000348006940F08000014908617047000039
:1019E0000020024078B504460D46062600200090EF
:1019F00004F0030010B10926304678BD7C20FFF7C3
:101A00008DFF4FF4005000F027F80646062E12D145
:101A10000A48006940F001000849086125604FF458
:101A2000005000F019F806460448006943F6FE71BC
:101A30000840024908613046DFE70000002002400C
:101A400002480349486003484860704723016745DE
:101A500000200240AB89EFCD00B502460623FFF718
:101A60008FFF034603E0FFF78BFF0346521E012B57
:101A700001D1002AF7D102B90A23184600BD00009F
:101A80002DE9F04104460E4615460027B84600BF32
:101A9000B4F5006F02D30020BDE8F0816019B0F505
:101AA000006F01D90020F7E74FF40072054906489E
:101AB00000F0A6F8034801192A463046FEF788FBD5
:101AC0002846E9E7643B002000E007082DE9F041E3
:101AD00004460E4615460027B84600BFB4F5006F11
:101AE00002D30120BDE8F0816019B0F5006F01D983
:101AF0000220F7E7084908192A463146FEF768FB35
:101B0000B4F5006F05D24FF400720349034800F0AA
:101B100007F80020E6E70000643B002000E007082B
:101B20002DE9F04704468846154600260027B246B0
:101B30000120304908703048844202D32F48844243
:101B400005D300202B4908700120BDE8F08700264E
:101B5000012709E0284800EBC720A04202D93E46F1
:101B6000022701E0781C87B2022FF3D305F00300AF
:101B700028B96019204901EBC621884204D9002008
:101B80001C4908700220E0E7FFF75AFF3420FFF7F6
:101B9000C5FE701E86B218494FF4006202FB0610A3
:101BA000FFF7C4FE062804D0002012490870032065
:101BB000CBE711484FF4006101FB060411E0D8F8AF
:101BC000009049462046FFF70DFF062804D1241D4A
:101BD00008F104082D1F04E00020064908700420C5
:101BE000B3E7042DEBD2FFF7F3FE002001490870A4
:101BF00000BFAAE74801002000E0070800F007083E
:101C0000F0B503460D4600240021D7B225480078E0
:101C100008B10020F0BD0220DFF888C08CF8000079
:101C20002148834202D32148834205D30020DFF8B4
:101C300074C08CF80000EDE70024012109E01A4887
:101C400000EBC120984202D90C46022101E0481C59
:101C500081B20229F3D302F0030030B99818DFF8FB
:101C600048C00CEBC42C604505D90020DFF834C017
:101C70008CF80000CEE7601E84B20B484FF4006C75
:101C80000CFB040304E01E682E601B1D2D1D121F9B
:101C9000042AF8D20020DFF80CC08CF80000384687
:101CA000B8E700004801002000E0070800F007083E
:101CB00030B500228B071C0F0F2303FA04F20B4BE5
:101CC0008C1053F824309343084C8D1044F8253081
:101CD00023468C1053F824308C07240F00FA04F4A8
:101CE0002343024C8D1044F8253030BD08000140DC
:101CF000F0B50C460023002600220025002100F04C
:101D00000047B7F1004F02D18B4FFA6919E000F09C
:101D10008047B7F1804F02D1874F3A6A11E000F057
:101D20000057B7F1005F02D1834F7A6A09E000F0F3
:101D30008057B7F1805F02D17F4FBA6A01E07E4FD2
:101D40007A68C0F3034583B27C4F0740B7F5401F64
:101D50000AD122F07062784F7F6827F07067DFF851
:101D6000D8C1CCF80470BDE000F48017B7F5801F2F
:101D700013D100F40017B7F5001F03D10327AF40BC
:101D80003E0402E0032707FA05F6B24300F0E047FD
:101D9000002FE8D142F07062A4E000F08077B7F144
:101DA000807F47D100F00407042F29D100F000778D
:101DB000B7F1007F16D1C0F340573F0103FA07F790
:101DC000BA433CB15C4F796841F0010141F0706168
:101DD000796087E0584F796821F0010141F0706126
:101DE00079607FE0C0F340573F0103FA07F7BA4339
:101DF000514F796821F0010141F07061796071E023
:101E000043F00407C0F3405C4FEA0C1C07FA0CF7E0
:101E1000BA433CB1484F796841F0010141F070612B
:101E200079605FE0444F796821F0010141F0706111
:101E3000796057E000F08067B7F1806F47D100F01C
:101E40000807082F29D100F00077B7F1007F16D1DD
:101E5000C0F340573F0103FA07F7BA433CB1364F8E
:101E6000796841F0080141F0706179603AE0324FE1
:101E7000796821F0080141F07061796032E0C0F3C7
:101E800040573F0103FA07F7BA432B4F796821F017
:101E9000080141F07061796024E043F00807C0F365
:101EA000405C4FEA0C1C07FA0CF7BA433CB1224FD6
:101EB000796841F0080141F07061796012E01E4FCD
:101EC000796821F0080141F0706179600AE0C0F39F
:101ED00040573F0103FA07F7BA4300F0E0470FB954
:101EE00042F070622CB1C0F340573F0103FA07F78C
:101EF0003A4300F00047B7F1004F02D10E4FFA61AC
:101F000019E000F08047B7F1804F02D10A4F3A62E2
:101F100011E000F00057B7F1005F02D1064F7A627E
:101F200009E000F08057B7F1805F02D1024FBA623A
:101F300001E0014F7A60F0BD000001400000307008
:101F40000EB50121FE48FFF7D3FE0121FD48FFF742
:101F5000CFFE0121FC48FFF7CBFE0121FB48FFF734
:101F6000C7FE4FF40040ADF8080010208DF80B00BC
:101F700003208DF80A0002A9F54800F0FDF94FF49E
:101F80000041F34800F08EFA4FF48060ADF808008D
:101F900003208DF80A0018208DF80B0002A9ED48E7
:101FA00000F0EAF94FF48050ADF8080003208DF8F6
:101FB0000A0018208DF80B0002A9E64800F0DCF9B1
:101FC0004FF40060ADF8080004208DF80B0002A962
:101FD000E04800F0D1F94FF48160ADF8080004202A
:101FE0008DF80B0002A9DA4800F0C6F94FF4017031
:101FF000ADF8080003208DF80A0018208DF80B00BA
:1020000002A9D34800F0B8F9C320ADF808000020B9
:102010008DF80B0002A9CE4800F0AEF90320ADF810
:10202000080000208DF80B0002A9CB4800F0A4F9AD
:102030003F20ADF8080000208DF80B0002A9C5482C
:1020400000F09AF93020ADF8080000208DF80B0060
:1020500002A9BF4800F090F910208DF80B00032072
:102060008DF80A004020ADF8080002A9B94800F038
:1020700083F910208DF80B0003208DF80A008020D2
:10208000ADF8080002A9B34800F076F9002240211B
:10209000B04800F009FA00228021AE4800F004FAAE
:1020A00018208DF80B0003208DF80A000002ADF80F
:1020B000080002A9A74800F05FF918208DF80B006E
:1020C00003208DF80A004FF48070ADF8080002A9D3
:1020D0009F4800F051F918208DF80B0003208DF86F
:1020E0000A000820ADF8080002A99B4800F044F956
:1020F0001C208DF80B0003208DF80A00C020ADF8DD
:10210000080002A9944800F037F91C208DF80B0054
:1021100003208DF80A008002ADF8080002A98E485D
:1021200000F02AF94FF48050ADF8080010208DF827
:102130000B0003208DF80A0002A9854800F01CF965
:1021400000224FF48051824800F0AEF94FF49850CD
:10215000ADF8080010208DF80B0003208DF80A0060
:1021600002A97D4800F008F9012251027A4800F0E6
:102170009BF901221102784800F096F9012211031F
:10218000754800F091F941F2883005F06AFB0022B1
:102190004FF48071704800F087F900224FF48051AD
:1021A0006D4800F081F94FF47A7005F05AFB4FF456
:1021B0004040ADF8080010208DF80B0003208DF88A
:1021C0000A0002A9634800F0D7F800224FF48041CA
:1021D000604800F069F90122D1035E4800F064F91B
:1021E00041F2883005F03DFB4FF47A7005F039FB81
:1021F0000420ADF8080010208DF80B0003208DF8A6
:102200000A0002A9554800F0B7F8012204215348FA
:1022100000F04AF94FF40060ADF8080048208DF84E
:102220000B0003208DF80A0002A9494800F0A4F829
:102230000420ADF8080048208DF80B0003208DF82D
:102240000A0002A9444800F097F81020ADF80800F1
:1022500048208DF80B0003208DF80A0002A93E48A3
:1022600000F08AF82020ADF8080048208DF80B0017
:1022700003208DF80A0002A9374800F07DF84FF4DA
:102280000050ADF8080048208DF80B0003208DF8B1
:102290000A0002A9304800F06FF84FF48040ADF812
:1022A000080048208DF80B0003208DF80A0002A9D1
:1022B000294800F061F84FF40040ADF808004820CC
:1022C0008DF80B0003208DF80A0002A9224800F0C7
:1022D00053F84FF40050ADF8080004208DF80B00BF
:1022E00003208DF80A0002A91A4800F045F80B21D6
:1022F0000020FFF7DDFC02210120FFF7D9FC0321BC
:102300000120FFF7D5FC05210120FFF7D1FC0D21AD
:102310000220FFF7CDFC4FF40460009000208DF800
:1023200004000C208DF8050001208DF80600684699
:10233000FFF7AAFA42F20C000090002010E0000023
:1023400000031800000C1A000002300000401E407C
:102350000008014000100140000C01400014014041
:102360008DF804000C208DF8050001208DF8060082
:102370006846FFF789FA0EBD2DE9F04102460025B7
:102380000026002000230024002791F803C00CF051
:102390000F0591F803C00CF0100CBCF1000F03D036
:1023A00091F802C04CEA050591F800C0BCF1000F9D
:1023B00031D0146800202BE04FF0010C0CFA00F330
:1023C000B1F800C00CEA03069E4220D183004FF012
:1023D0000F0C0CFA03F7BC4305FA03FC4CEA0404A7
:1023E00091F803C0BCF1280F06D14FF0010C0CFA94
:1023F00000FCC2F814C00AE091F803C0BCF1480F19
:1024000005D14FF0010C0CFA00FCC2F810C0401CC2
:102410000828D1D31460B1F800C0BCF1FF0F34DD3F
:10242000546800202EE000F1080C4FF0010808FA73
:102430000CF3B1F800C00CEA03069E4221D18300E0
:102440004FF00F0C0CFA03F7BC4305FA03FC4CEAFF
:10245000040491F803C0BCF1280F05D100F1080C69
:1024600008FA0CF8C2F8148091F803C0BCF1480FC8
:1024700007D100F1080C4FF0010808FA0CF8C2F877
:102480001080401C0828CED35460BDE8F08102467D
:10249000002093680B400BB1012000E00020704742
:1024A00041617047016170470AB1016100E041611B
:1024B000704700001FB50F4800F0A4F90020ADF8E8
:1024C00004004BF6FF70ADF806000020ADF80800E0
:1024D0004FF48060ADF80A000001ADF80C0006482A
:1024E00000906946034800F0CDF90121014800F051
:1024F000A5F91FBD00540040801A06002DE9F041E7
:1025000005460E46144637464FF42040654908609C
:102510004FF000080121644800F067F9012162488A
:1025200000F098F94FF420405E49086008E05D49EA
:102530000868411E5B4A116010B90520BDE8F081B2
:102540005A49594800F03CF90028F0D00022D42123
:10255000554800F011FA4FF420405249086007E056
:1025600050490868411E4F4A116008B90620E5E746
:102570004F494D4800F024F90028F1D029464A4837
:1025800000F003FA4FF420404649086007E045494F
:102590000868411E434A116008B90720CEE7444944
:1025A000891E414800F00CF90028F0D04FF420407B
:1025B0003C49086007E03B490868411E394A116000
:1025C00008B90820BAE73A49891C374800F0F8F8FA
:1025D0000028F0D00121344800F03CF94FF42040AD
:1025E0003049086007E02F490868411E2D4A1160F4
:1025F00008B90A20A2E72D492B4800F0E1F800288D
:10260000F1D00122D421284800F0B6F94FF420403F
:102610002449086007E023490868411E214A1160E7
:1026200008B906208AE72149491C1F4800F0C8F86C
:102630000028F0D01FE0012C03D100211A4800F03F
:10264000D4F84FF420401749086007E0154908689E
:10265000411E144A116008B90E206FE71248143069
:10266000008800F040000028F0D00F4800F080F90A
:1026700007F8010B641E002CDDDC00210A4800F085
:10268000B4F80121084800F0F1F84FF0000803E029
:1026900008F101001FFA80F841F288308045F7DB2D
:1026A00000204BE7F401002000540040010003002B
:1026B000820007002DE9F04105460F4614463B4EC7
:1026C0004FF000083046057022463946401CFDF7A1
:1026D0007FFD641C0121364800F087F80121344851
:1026E00000F0B8F84FF420403249086008E0314962
:1026F0000868411E2F4A116010B90520BDE8F0811D
:102700002D492B4800F05CF80028F0D00022D4219D
:10271000274800F031F94FF420402649086007E0CF
:1027200024490868411E234A116008B90620E5E7DC
:1027300022491F4800F044F80028F1D018E016F8AC
:10274000011B1B4800F021F94FF420401949086093
:1027500007E018490868411E164A116008B90720A9
:10276000CCE71649891E124800F02AF80028F0D05C
:10277000201EA4F10104E2DC4FF420400D49086062
:1027800007E00C490868411E0A4A116008B9082090
:10279000B4E70A49891C064800F012F80028F0D076
:1027A0000121034800F062F80020A7E70AC30120D6
:1027B00000540040F40100200100030082000700E3
:1027C00070B502460024002500230020958A138B53
:1027D0001B0445EA030626F07F4404EA01068E4204
:1027E00001D1012000E0002070BD21B1028842F437
:1027F0008062028004E002884FF6FF331A400280B4
:102800007047000010B504460B48844209D10121ED
:10281000480500F04FFA00214FF4001000F04AFA8A
:1028200008E00121880500F045FA00214FF48000FE
:1028300000F040FA10BD00000054004021B10288B1
:1028400042F00102028004E002884FF6FE731A4053
:102850000280704721B1028842F48072028004E055
:1028600002884FF6FF631A400280704721B1028848
:1028700042F40072028004E002884FF6FF531A40CF
:10288000028070472DE9F04387B004460D460026CC
:10289000B1460427DFF8CC80A6884FF6C07006400A
:1028A00001A800F03DFADDF80C802F48B8FBF0F0ED
:1028B0001FFA80F946EA0906A68020884FF6FE71C5
:1028C0000840208000262949286888420CD82868BA
:1028D0004000B8FBF0F087B2042F00DA04273E4333
:1028E00009F10100208427E0E8884BF6FF71884257
:1028F00006D1286800EB4000B8FBF0F087B209E091
:10290000286800EBC00101EB0010B8FBF0F087B2C3
:1029100047F48047C7F30B0008B947F0010747F4B5
:10292000004006434FF4967009FB00F04FF47A71B3
:1029300090FBF1F0401C2084A683208840F0010029
:10294000208026884FF6F5300640A888698908431C
:1029500006432680A88929890843208107B0BDE85D
:10296000F083000000127A0040420F00A0860100B0
:102970000146088AC0B2704712B141F0010102E07D
:102980004FF6FE73194001827047018270470000C4
:1029900001498860704700000030004010B50120F8
:1029A00000F0B8F900BF612000F040FA0028FAD02A
:1029B00045F2555000F026F8062000F01DF80548B5
:1029C0000068C0F34F10FFF7E3FF00F00DF800F0D0
:1029D00003F810BD840000204CF6CC40014908608B
:1029E00070470000003000404AF6AA200149086004
:1029F0007047000000300040014948607047000007
:102A0000003000400149086070470000003000407D
:102A100010B545F25550FFF7F5FF04480068C0F3C4
:102A20004F10FFF7B5FFFFF7DFFF10BD8400002058
:102A300000BFFEE7704708B54FF4E06000F082F891
:102A400025208DF8000000208DF801008DF802008F
:102A500001208DF80300684600F03CF810208DF846
:102A6000000000208DF8010001208DF802008DF893
:102A70000300684600F02EF832208DF80000002098
:102A80008DF8010002208DF8020001208DF803006E
:102A9000684600F01FF817208DF8000000208DF820
:102AA000010003208DF8020001208DF80300684624
:102AB00000F010F828208DF8000000208DF80100AB
:102AC00003208DF8020001208DF80300684600F015
:102AD00001F808BD70B5002100230F22C47804B3AB
:102AE000154C246804F4E064C4F5E064210AC1F1E3
:102AF0000403CA40447804FA03F184781440214363
:102B000009010E4C0678A155047804F01F05012434
:102B1000AC4005786D11AD0005F1E025C5F8004128
:102B200009E0047804F01F050124AC40044D067848
:102B3000761145F8264070BD0CED00E000E400E0A1
:102B400080E100E002490143024A11607047000041
:102B50000000FA050CED00E001460020034AD06AAF
:102B600020F00F000843D0627047000000100240C0
:102B700002460020064BD86A20F4F87009B11043D1
:102B800002E0104320F48070014BD86270470000CF
:102B90000010024001460020034A506820F4E06023
:102BA00008435060704700000010024010B54FF419
:102BB000A060FFF7EFFF0121C80200F08BF80121B0
:102BC000084600F067F80121022000F063F80121B7
:102BD000042000F05FF80121082000F05BF80121DB
:102BE000102000F057F80121042000F073F80121B3
:102BF000082000F06FF80121102000F06BF801218F
:102C0000202000F067F80121084600F063F8012158
:102C1000084600F02FF80121022000F02BF80121D6
:102C20004FF4E04000F026F807210020FDF77EFF7A
:102C30000121052000F04EF80121880300F04AF838
:102C40000121052000F046F80121480400F022F897
:102C50000121480700F01EF80121480500F01AF88C
:102C60000121880500F016F80121C80300F012F8D0
:102C700010BD000029B1064A52690243044B5A6153
:102C800004E0034A52698243014B5A6170470000D5
:102C90000010024029B1064AD2690243044BDA61AE
:102CA00004E0034AD2698243014BDA6170470000B5
:102CB0000010024029B1064A12690243044B1A610E
:102CC00004E0034A12698243014B1A617047000015
:102CD0000010024029B1064A92690243044B9A61EE
:102CE00004E0034A92698243014B9A6170470000F5
:102CF0000010024029B1064AD2680243044BDA6050
:102D000004E0034AD2688243014BDA607047000056
:102D100000100240014908607047000080044242F0
:102D2000F0B5002100BF002200250024384E76684F
:102D3000384F06EA0702364E766806F4803502F010
:102D400000661EB9022606EB924204E04FF4F876C4
:102D5000C6EB9246721C1DB92F4E02FB06F30BE028
:102D60002B4E766806F400361EB12B4E02FB06F39E
:102D700002E02A4E02FB06F3254E766806F00C01AF
:102D800021B1042905D0082908D105E0234E0660A9
:102D900007E0224E066004E0036002E01F4E06607A
:102DA00000BF00BF1A4E766806F0F00109091C4EFC
:102DB000745C0668E6404660154E766806F4E0618D
:102DC000090A174E745C4668E6408660104E7668C5
:102DD00006F46051C90A124E745C4668E640C6604B
:102DE0000B4EF66A06F00F010E4E745C4668B6FB99
:102DF000F4F64661064EF66A06F4F871090901F028
:102E00000F06094F37F81640B3FBF4F60661F0BD24
:102E10000010024000003C0800093D0000127A004A
:102E20000C3802081C3802082C38020810B501467C
:102E30000022002300204A11012A02D1094C2368F4
:102E400006E0022A02D1074C236A01E0054C636ABE
:102E500001F01F02012494401C400CB1012000E04D
:102E6000002010BD0010024000B585B04FF40041B5
:102E70001448FFF717FB0020ADF800004FF48270F4
:102E8000ADF802000020ADF804000220ADF8060005
:102E90000120ADF808004002ADF80A002020ADF88E
:102EA0000C000020ADF80E000720ADF810006946B8
:102EB000054800F017F80121034800F007F805B0B5
:102EC00000BD000000080140003C004021B1028824
:102ED00042F04002028004E002884FF6BF731A40BD
:102EE0000280704710B50022028802F441520B881C
:102EF0004C8823438C882343CC8823430C89234369
:102F00004C8923438C892343CC8923431A43028071
:102F1000838B4FF2FF74234083830B8A038210BD9F
:102F20007047000010B50020002100222F4B1B68C5
:102F300043F480332D4C236000BF2C4B1B68C3F33C
:102F40004041521C11B9B2F5004FF6D1274B1B6816
:102F5000C3F3404119B9264B264C236010BD264BC4
:102F60001B6823F00303244C236023461B6843F0B3
:102F7000040323601D4B5B681C4C636023465B6845
:102F800043F40053636023465B6843F4A0636360CB
:102F900023465B68194C2340144C636023465868F1
:102FA00040F4803000BF164B1843234658601B681E
:102FB00043F08073236000BF0C4B1B6803F0007369
:102FC000002BF9D0094B5B6823F00303074C6360C7
:102FD00023465B6843F00203636000BF034B5B68FA
:102FE00003F00C03082BF9D100BFB7E70010024033
:102FF00000127A000000002000200240FFFFC0F70E
:10300000000004087047000010B52448006840F430
:103010007000224908602248006840F00100204901
:103020000860084640681F4908401D494860084636
:1030300000681D4908401A4908600846006820F4E5
:1030400080200860084640681849084014494860D4
:103050000020C86208634FF41F0088600846C069FA
:1030600040F08050C8611248C06840F0010010492B
:10307000C8600B48C06920F080500949C8610D48FC
:10308000006840F090000B490860FFF74BFF4FF0DD
:10309000006002498039086010BD000088ED00E042
:1030A0000010024000C0FFF8FFFFF6FEFFFF00F730
:1030B000007000400020024010B588B000241E4877
:1030C00000681E49B0FBF1F0401E84B240F2572068
:1030D000ADF81400ADF810400020ADF81600ADF8C2
:1030E000120004A9164800F015FB6020ADF800009E
:1030F0000120ADF8020013480088ADF8060000205A
:10310000ADF8080069460E4800F010FA08210C4896
:1031100000F0B2F901210A4800F09AF901210848AB
:1031200000F0D9F90121064800F0E0F90021044837
:1031300000F0A4FB08B010BD0000002000366E01B6
:10314000002C01408A0000202DE9F04188B00024C5
:10315000A626F92540F24D17B8461E4800681E49BC
:10316000B0FBF1F0401E84B240F2E730ADF814003D
:10317000ADF810400020ADF81600ADF8120004A91B
:10318000A80700F0C7FA6020ADF800000120ADF8F4
:103190000200ADF806500020ADF808006946A80707
:1031A00000F0FEF90821C80600F06FF90021A80719
:1031B00000F066FB0121880700F04AF90121880729
:1031C00000F089F90121880700F090F908B0BDE806
:1031D000F08100000000002000366E0110B50121D2
:1031E000880700F092F918B10121880700F02CF946
:1031F00010BD00002DE9F04188B00025A626F92475
:1032000040F24D17B8462A4800682A49B0FBF1F051
:10321000401E85B242F6DF60ADF81400ADF81050E4
:103220000020ADF81600ADF8120004A9224800F005
:1032300071FA6020ADF800000120ADF80200ADF891
:1032400006400020ADF8080069461B4800F0ECF984
:103250000821194800F026F90021174800F012FB58
:103260006020ADF800000120ADF80200ADF8064086
:103270000220ADF8080069460F4800F015FA082151
:103280000D4800F018F942F6E0610B4800F0FCFA36
:103290000121094800F0DCF80121074800F01BF982
:1032A0000121054800F022F908B0BDE8F0810000D6
:1032B0000000002000366E01000400401FB500240D
:1032C00000BF2320ADF804000020ADF80000ADF8E9
:1032D0000600ADF8020069460A4800F01BFA2021FA
:1032E000084800F0C3FA01222146064800F0F0F831
:1032F00001221146034800F0B6F80121014800F010
:10330000EAF81FBD0008004010B50121044800F094
:10331000FCF818B10121024800F096F810BD000039
:10332000000800401FB500241248006880081249B8
:10333000B0FBF1F0401E84B240F2CF70ADF8040053
:103340000020ADF80000ADF80600ADF802006946B7
:103350000A4800F0DFF901222146084800F0B8F8D9
:1033600001221146054800F07EF80121034800F0D3
:10337000B2F81FBD0000002040420F00000C0040CA
:1033800010B50121054800F0C0F828B1012103481B
:1033900000F05AF80FF0D4FE10BD0000000C004001
:1033A00010B586B000241C48006880081B49B0FB9B
:1033B000F1F0401E84B2F920ADF808000020ADF80D
:1033C0000400ADF80A00ADF8060001A9144800F0A9
:1033D000A1F901222146124800F07AF80122114693
:1033E0000F4800F040F836208DF8140000208DF8CA
:1033F000150002208DF8160001208DF8170005A891
:10340000FFF768FB0121064800F07FF8012104481E
:1034100000F061F806B010BD0000002040420F002F
:103420000010004010B572B60121064800F06DF89A
:1034300028B10121034800F007F807F0A7F962B6A8
:1034400010BD00000010004002698A43026170470D
:1034500021B1026842F08002026003E0026822F0BB
:103460008002026070471AB183890B43838102E0B6
:1034700083898B43838170470A460021018B4FF675
:10348000F77319401143018370470A460021018BED
:103490004FF2FF7319404FF6FF7303EA02231943FB
:1034A000018370470A460021818B4FF6F77319405C
:1034B0001143818370470A460021818B4FF2FF73CD
:1034C00019404FF6FF7303EA0223194381837047C3
:1034D00001858282704721B1026842F001020260D8
:1034E00003E0026822F001020260704731B1B0F8D7
:1034F000442042F40042A0F8442005E0B0F8442003
:10350000C2F30E02A0F84420704730B502460020F6
:1035100000230024156905EA0103958905EA0104E1
:1035200013B10CB1012000E0002030BD30B5002403
:1035300000220023056A25F001050562026A43683E
:10354000048B4FF68F752C404FF6FC752C400D8880
:103550002C4322F002020D892A434D882A430E4D46
:10356000A84202D00D4DA8420FD122F008024D8989
:103570002A4322F004028D882A4323F4807323F423
:1035800000738D892B43CD892B4343600483CD8801
:103590008586026230BD0000002C014000340140ED
:1035A00070B5002400220023056A25F0100505628D
:1035B000026A4368048B48F6FF752C404FF6FF45BE
:1035C0002C400D884FF6FF7606EA05252C4322F0A5
:1035D00020020D8942EA05124D8842EA0512104D7B
:1035E000A84202D00F4DA84213D122F080024D898B
:1035F00042EA051222F040028D8842EA051223F4C5
:10360000806323F400638D8943EA8503CD8943EA0F
:10361000850343600483CD880587026270BD000086
:10362000002C01400034014030B50024002200236A
:10363000056A25F480750562026A4368848B4FF63B
:103640008F752C404FF6FC752C400D882C4322F4CE
:1036500000720D8942EA05224D8842EA0522104D8A
:10366000A84202D00F4DA84213D122F400624D8926
:1036700042EA052222F480628D8842EA052223F480
:10368000805323F400538D8943EA0513CD8943EA1F
:10369000051343608483CD888587026230BD0000B6
:1036A000002C01400034014070B5002200230024AA
:1036B000056A25F480550562036A4468828B48F6E2
:1036C000FF752A404FF6FF452A400D884FF6FF76DA
:1036D00006EA05252A4323F400530D8943EA0533FE
:1036E0004D8843EA0533094DA84202D0084DA8424F
:1036F00004D124F480448D8944EA85144460828393
:10370000CD88A0F84050036270BD0000002C01403D
:10371000003401400A46002101684D4B98420ED00A
:103720004C4B98420BD0B0F1804F08D04A4B984296
:1037300005D04A4B984202D0494B984203D121F020
:10374000700153881943474B984206D0464B984224
:1037500003D021F44071D388194301609388838595
:10376000138803853A4B984202D03A4B984201D1D4
:10377000137A0386012383820168354B98420ED069
:10378000344B98420BD0B0F1804F08D0324B984266
:1037900005D0324B984202D0314B984206D1537A31
:1037A00013B141F4006101E021F40061B0F1804FF8
:1037B00008D0294B984205D0284B984202D0284B7C
:1037C00098420DD1937A13B141F4805101E021F474
:1037D0008051D37A13B141F4005101E021F400513A
:1037E000B0F1804F05D01C4B984202D01B4B984241
:1037F00006D1137B13B141F4804101E021F48041F3
:10380000134B98420BD0134B984208D0B0F1804F25
:1038100005D0114B984202D0104B984206D1537BF1
:1038200013B141F4004101E021F40041016041681D
:10383000B0F1804F02D0094B984206D1937B13B16F
:1038400041F4807101E021F4807141607047000013
:10385000002C0140003401400004004000080040FA
:10386000000C00400010004000140040426822F0AC
:103870007002426042680A43426070478186704726
:103880000187704781877047A0F84010704700009B
:103890001FB5104800F08AF94FF416500090002030
:1038A000ADF80400ADF80600ADF80800ADF80C0066
:1038B0000C20ADF80A006946064800F02FFA0122F4
:1038C00040F22551034800F04BF90121014800F076
:1038D000D9F91FBD003801402DE9F041404C414D60
:1038E000414E4FF00008002772B640F225513F4884
:1038F00000F0EAF900284FD03C4800F069FA07468A
:103900000FF086FD8046B8F1010F28D1D4E90012EE
:103910008F54606820B9422F1CD10120606019E0EB
:10392000606801280CD14D2F02D10220606011E0A7
:10393000422F02D1012060600CE00020606009E0AD
:103940006068401C60602A496068B0FBF1F201FBCE
:103950001200606040F2DC500FF054FD3CE0D5F8FE
:1039600000126F54D5F8000238B9002F10DD202F57
:103970000EDA0120C5F800020AE0D5F80002401C6A
:10398000C5F80002B5F80002C0F30800C5F800024F
:10399000C8200FF037FD1FE040F22771134800F0F8
:1039A00093F9C8B1D6F8080268B1B6F80422501CE1
:1039B000A6F80402B15C0D4800F00FFAD6F8080230
:1039C000401EC6F80802D6F8080228B9002240F2C4
:1039D0002771064800F0C4F862B6BDE8F081000027
:1039E000C0430020383400202C3200200038014031
:1039F000743A01001FB5104800F0D8F84FF4E130D8
:103A000000900020ADF80400ADF80600ADF8080005
:103A1000ADF80C000C20ADF80A006946064800F02D
:103A20007DF901224021044800F038F901210248C3
:103A300000F028F91FBD0000004400402DE9F047C8
:103A4000424C434D0027B8460026DFF8089172B675
:103A500040F22551404800F037F900284DD03E484B
:103A600000F0B6F980460FF00BFD0746012F04D198
:103A700044F620600FF0FEFC64E0022F28D140F2F3
:103A8000DC500FF0F7FC8526D4F80022501CC4F857
:103A9000000204F80280B4F80002C0F30800C4F881
:103AA0000002D4F80002B0424CD331464846FCF73D
:103AB000A8FB324621464846FCF78AFBA9F8046178
:103AC00031462046FCF79DFB0020C4F8000239E097
:103AD0001E200FF0CFFC2148FCF7AAFB0646D4F8C5
:103AE0000022501CC4F8000204F80280B4F800025E
:103AF000C0F30800C4F8000224E040F22771164821
:103B000000F0E2F8D0B1D5F8080268B1B5F80422A7
:103B1000501CA5F80402A95C0F4800F05EF9D5F826
:103B20000802401EC5F80802D5F8080250B9002264
:103B300040F22771084800F013F803E0064800F04F
:103B400047F9804662B6BDE8F08700005038002093
:103B500044360020FEC001200044004003D003088A
:103B6000F0B50346002400260025002040F66A1721
:103B7000B94200D100BF1846C1F3421401F01F063C
:103B8000012707FA06F5012C01D10C3004E0022CC4
:103B900001D1103000E014301AB107682F430760DC
:103BA00002E00768AF430760F0BD000010B50446AF
:103BB0002D48844209D101218803FFF79BF8002199
:103BC0004FF48040FFF796F84CE02848844209D132
:103BD00001214804FFF76EF800214FF40030FFF791
:103BE00069F83FE02248844209D101218804FFF7A7
:103BF00061F800214FF48020FFF75CF832E01D48A7
:103C0000844209D10121C804FFF754F800214FF480
:103C10000020FFF74FF825E01748844209D1012121
:103C20000805FFF747F800214FF48010FFF742F82E
:103C300018E01248844209D101214804FFF75AF8DC
:103C400000214FF40030FFF755F80BE00C48844298
:103C500008D101218804FFF74DF800214FF480209E
:103C6000FFF748F810BD0000003801400044004054
:103C700000480040004C004000500040005001400F
:103C80000054014021B1828942F40052828104E053
:103C900082894DF6FF731A40828170471AB1838A78
:103CA0000B43838202E0838A8B4383827047024600
:103CB0000020B1F5007F00D100BF13880B400BB18D
:103CC000012000E00020704770B502460024002368
:103CD0000025002040F66A16B14200D100BFC1F3B2
:103CE000421501F01F03012606FA03F3012D02D14C
:103CF0009689334006E0022D02D1168A334001E056
:103D0000968A33400C12012606FA04F416883440D1
:103D100013B10CB1012000E0002070BD2DE9F04787
:103D200086B005460F460024A24600BF00BF00260D
:103D3000B88900B100BF2E462C8A4CF6FF700440B3
:103D4000F88804432C82AC894EF6F3100440B888FE
:103D500039890843798908430443AC81AC8A4FF61A
:103D6000FF400440B8890443AC826846FEF7D8FFA0
:103D70001448864205D01448864202D01348864231
:103D800002D1DDF80CA001E0DDF808A00AEBCA00C2
:103D900000EB0A1039688900B0FBF1F86420B8FB29
:103DA000F0F004012009642101FB1089322000EBAE
:103DB0000910B0FBF1F000F00F0004432C8106B0B5
:103DC000BDE8F08700380140005001400054014038
:103DD00001468888C0F30800704730B504460D4698
:103DE00000BF80212046FFF762FF0028F9D0C5F30D
:103DF0000800A08030BD00BFFEE700000FB40846F9
:103E000010B5064A02A900F031FF044602A90020BD
:103E100000F03DFF204610BC5DF814FB8F4C0108FC
:103E200003B401984100009850EAC12018BF042053
:103E30004A0D18BF40F0010040F2FF72B2EB515F33
:103E400008BF40F00200012808BF052002B07047FB
:103E500010B5B94A2DED020B2DED0C8B82B00F99E8
:103E600021F000409FEDB6CB90422CDBA0F14053F7
:103E70000E9AA3F17F631A430FD0B349884202DC44
:103E800016D10E98A0B19DED0E0B02B0BDEC0C8BBF
:103E900002B0BDE8104000F09FBE0029C1BF9FEDF9
:103EA000AC0B02B0BDEC0C8B02B0C8BF10BD16E06D
:103EB000012000F0D5FE02B0BDEC0C8B02B0BDE8D5
:103EC000104000F09DBEA44A9FEDA59B9FEDA6ABC0
:103ED00090425EDAA6499FEDA8CB814208DBB0EEA6
:103EE0004C0AF0EE6C0A02B0BDEC0C8B02B010BDB7
:103EF0009DED0E0B53EC102B51EC100BFCF753FA0D
:103F000041EC180B9E480621B0EE480AF0EE680A14
:103F1000784400F0CCFD53EC182B51EC100BFCF75F
:103F200042FA41EC1B0B9748B0EE480AF0EE680AE3
:103F30000421784400F0BBFD53EC182B51EC100B1E
:103F4000FCF731FA53EC192BFCF786F941EC100B16
:103F500051EC1B0B53EC102BFCF797FA41EC100BB8
:103F600053EC102B9DED0E0B51EC100BFCF71BFAD4
:103F700053EC1A2BFCF714FA9DED0E1B53EC112B8E
:103F8000FCF70EFA53EC1C2BFCF70AFA41EC100B71
:103F9000A9E79FED7D8B9FED7EBB9DED0E0B00296C
:103FA00053EC192B51EC100B52DAFCF755F953EC8A
:103FB000182BFCF7F8F941EC180B77480621B0EE06
:103FC000480AF0EE680A784400F071FD53EC182BB3
:103FD00051EC100BFCF7E7F941EC1D0B6F48B0EE0C
:103FE000480AF0EE680A0421784400F060FD53ECC2
:103FF000182B51EC100BFCF7D6F953EC192BFCF7EE
:104000002BF941EC190B51EC180B0EF08FFF41EC22
:10401000180B53EC192B51EC1D0BFCF736FA53EC33
:10402000182BFCF7C0F953EC1A2BFCF7B6F941EC4E
:10403000100B51EC180B53EC102BFCF70DF953EC53
:104040001B2BFCF7B0F953EC1C2BFCF7A9F96DE026
:10405000FCF7A6F953EC182BFCF7A5F941EC180B6B
:104060000EF064FF41EC1A0B00208DED00AB0090C8
:104070009DED000B51EC1A0B53EC102BFCF7ECF8F8
:104080009DED000B41EC1C0B53EC102B51EC100B75
:10409000FCF789F953EC182BFCF782F953EC1C2B35
:1040A000FCF7F3F941EC1C0B3D48B0EE480AF0EE8A
:1040B000680A0621784400F0FAFC53EC182B51EC06
:1040C000100BFCF770F941EC1D0B3648B0EE480AB6
:1040D000F0EE680A0421784400F0E9FC53EC182B58
:1040E00051EC100BFCF75FF953EC192BFCF7B4F80B
:1040F00041EC100B51EC1D0B53EC102BFCF7C5F9E8
:1041000053EC1A2BFCF74FF953EC1C2BFCF7A4F8DB
:1041100041EC100B53EC102B9DED000B51EC100BF0
:10412000FCF79AF853EC1B2BFCF73DF941EC100B14
:10413000D9E60000000000000000F03F0000000091
:10414000182D4454FB2109400000F07F00000000BE
:1041500000000000000000000000E03F0000000040
:10416000000000000000F03F075C143326A6913CDD
:104170000000603C00000000182D4454FB21F93F72
:104180003496020042960200000000000000E03F6A
:1041900000000000000000407E9502008C950200A7
:1041A000909402009E94020070B59B482DED020B86
:1041B0002DED068B079D25F00044A04218DC9748A2
:1041C000844202DC0AD1069840B19DED060BBDEC9D
:1041D000068B02B0BDE8704000F0FEBC002DCCBFE5
:1041E0009FED8F0B9FED900BBDEC068B02B070BD69
:1041F0008F48A04215DD8F48A042D8BF4FF0FF3452
:1042000058DD9DED060B51EC100BFFF709FE04285D
:1042100008BF00F005FD9DED060BBDEC068B02B05E
:1042200070BD9DED060B51EC100B09F029FDCDE999
:10423000060181489FED828BA0423CDD8248A0426E
:104240001FDD00249FED82AB9DED060B53EC1A2B76
:1042500051EC100BFCF700F89DED060B41EC190B2F
:1042600053EC1A2B51EC100BFCF79DF853EC182B68
:10427000FCF793F853EC192BFCF707F9CDE906018D
:1042800049E09DED060B012453EC182B51EC100B6B
:10429000FBF7E2FF9DED060B41EC190B53EC182BDD
:1042A00051EC100BFCF779F853EC192BFCF7EDF8F7
:1042B000CDE906012FE06848A0421FDD02249FEDF2
:1042C000689B9DED060B53EC192B51EC100BFCF782
:1042D0006AF853EC182BFBF7BFFF9DED060B41EC82
:1042E000180B53EC192B51EC100BFCF756F853EC50
:1042F000182BFCF7CAF8CDE906010CE09DED060B82
:10430000032453EC102B9FED580B51EC100BFCF7D2
:10431000BCF8CDE906019DED060B53EC102B51ECDA
:10432000100BFCF740F841EC180B53EC182BFCF782
:104330003AF841EC190B4E480621B0EE490AF0EE6E
:10434000690A784400F0B3FB53EC182B51EC100BC6
:10435000FCF729F841EC180B4648B0EE490AF0EE9C
:10436000690A0521784400F0A2FB53EC192B51ECAB
:10437000100BFCF718F841EC100B51EC180B53EC38
:10438000102B002C0EDAFBF767FF9DED061B53EC9C
:10439000112BFCF708F89DED061B53EC112BFBF7D6
:1043A000FFFF35E0FBF758FF9DED061B53EC112B8B
:1043B000FBF7F9FF41EC100B2F48784400EBC400E9
:1043C00090ED001B51EC100B53EC112BFBF7E5FFAC
:1043D0009DED061B53EC112BFBF7DFFF41EC100B9F
:1043E0002648784400EBC40090ED001B51EC100B04
:1043F00053EC112BFBF7D4FF41EC100B002DA2BFA7
:10440000BDEC068B02B070BD51EC100B81F0004189
:1044100041EC100B01E70000000010440000F07FA9
:10442000182D4454FB21F93F182D4454FB21F9BFAA
:104430000000DC3F0000203E0000F33F00000000D1
:10444000000000000000F03F0000E63F0000000018
:104450000000000000000040008003400000000059
:10446000000000000000F83F000000000000F0BF66
:10447000BA92020070920200FA910200B291020018
:1044800070B56B4E2DED040B2DED028B82B0DDF877
:104490001CC0DDE905235C422CF000411C4341EACD
:1044A000D474049D22F00040B44205D86C422C43E1
:1044B00040EAD474B4420BD99DED061B9DED040B6C
:1044C00002B0BDEC028B04B0BDE8704000F08EBBC2
:1044D000ACF14054A4F17F641C430BD0022404EAE5
:1044E000AC7444EAD27405439FED538B9FED542B7B
:1044F00007D015E09DED040B51EC100B00F0A3FD6F
:1045000042E0002C11BF012C9DED040B02B0BDEC6C
:10451000028B04BF04B070BD022C38D0032C3BD0FA
:104520000B439FED491B9FED4A0B0AD0B14218D1B6
:10453000B04209D121F0804120F0804007910590E0
:104540000FE0002A15DA10E0434B7B44002C08BF33
:1045500093ED000B0DD0012C10D0022C17D0032CA2
:104560001AD0B0421DD1002A03DAB0EE410AF0EEB3
:10457000610A02B0BDEC028B04B070BD93ED000B7C
:1045800051EC100B81F0004141EC100BF1E7B0EE63
:10459000480AF0EE680AECE7B0EE420AF0EE620A72
:1045A000E7E7401A00153C28C8BF8DED000B19DC69
:1045B000BCF1000FBEBF10F13C0F9FED290B8DED3C
:1045C000000B0FDB9DED060B53EC102B9DED040B48
:1045D00051EC100BFBF759FF09F052FB00F033FDD3
:1045E000CDE90001002C08BF9DED000BC1D0012CCE
:1045F00010D0022C9FED1C0B53EC102B9DED000BEB
:1046000051EC100B0DD0FBF7C8FE53EC182BFBF749
:10461000C4FEB9E7019880F0004001909DED000BC9
:10462000A7E7FBF7BAFE53EC182BFBF7B9FEABE795
:104630000000F07F00000000182D4454FB210940C9
:10464000182D4454FB2109C0182D4454FB21F9BFF7
:10465000182D4454FB21F93F1A910200000000007C
:104660000000000000000000075C143326A6A13CF7
:1046700070B5D94B00242DED020B2DED108BDDE92B
:104680001010984205DA20F000429A4201D809D170
:1046900041B19DED100BBDEC108B02B0BDE8704038
:1046A00000F09ABAB0F5801F26DA11430BD000282B
:1046B00013DA012000F0D4FABDEC108B02B0BDE893
:1046C000704000F09DBA022000F0CAFA00F06CFAC7
:1046D00051EC100B81F000419EE06FF035049FED2E
:1046E000C00B53EC102B9DED100B51EC100BFBF796
:1046F0005AFECDE91001084604EB2051C0F3130423
:10470000B948A1F2FF31204400F4801080F07F62AC
:1047100082F04052224301EB20559FEDB50B1192E0
:1047200053EC102B9DED100B51EC100BFBF735FEED
:1047300041EC180BA01CC0F313009FEDAFDB9FED05
:10474000B0EBB14E7E4403286CD296ED000B51ECD9
:10475000180B53EC102BFCF7A1F81DD1002D01BF55
:1047600096ED000BBDEC108B02B070BD2846FBF738
:10477000FBFE41EC180B53EC1D2BFBF714FE41EC38
:10478000190B53EC1E2B51EC180BFBF70CFE53ECE2
:10479000192BFBF761FD3FE09FED9D0B51EC180BD2
:1047A00053EC102BFBF7FFFD9FED9B1B53EC112BE4
:1047B000FBF7F6FD41EC190B53EC182B51EC180BE1
:1047C000FBF7F1FD53EC192BFBF7EDFD41EC190B59
:1047D000002D04BF53EC192B51EC180B1AD02846AE
:1047E000FBF7C2FE41EC1A0B53EC1D2BFBF7DBFD74
:1047F00053EC192BFBF7D4FD53EC182BFBF7CDFD35
:1048000041EC180B53EC1E2B51EC1A0BFBF7CBFDB4
:1048100053EC182BFBF7C1FDBDEC108B02B041EC43
:10482000100B70BD9FED7E0B51EC180B53EC102B51
:10483000FBF712FD41EC100B51EC180B53EC102B55
:10484000FBF723FE41EC190B2846FBF78DFE41ECEC
:104850001B0B53EC192B51EC190BFBF7A4FD41EC8E
:104860001A0B714853EC1A2B261851EC1A0BFBF754
:104870009AFD41EC1F0B6D48C4F1510404F5D72497
:10488000B0EE4F0AF0EE6F0A0321784400F00FF902
:1048900053EC1F2B51EC100BFBF785FD41EC1C0B6F
:1048A0006348B0EE4F0AF0EE6F0A0421784400F03E
:1048B000FEF853EC1A2B51EC100BFBF774FD34434C
:1048C00053EC1C2BFBF7C8FC41EC1C0B002C4CDD03
:1048D0009FED510B51EC180B53EC102BFBF763FDC4
:1048E00053EC182BFBF75FFD41EC1A0B55B353EC5F
:1048F0001D2B51EC1B0BFBF756FD41EC1D0B53EC34
:104900001C2B51EC1A0BFBF7A7FC53EC192BFBF7F4
:104910004AFD53EC1D2BFBF79FFC53EC1A2BFBF7C6
:104920003FFD53EC182BFBF738FD41EC180B53EC13
:104930001E2B51EC1B0BFBF736FD53EC182BFBF732
:104940002CFD69E753EC1C2B51EC1A0BFBF784FC94
:1049500053EC192BFBF727FD53EC1A2BFBF720FD2B
:1049600053EC182BFBF71CFD56E735B353EC1D2B0E
:1049700051EC1B0BFBF717FD41EC1A0B53EC1C2BF6
:1049800051EC180BFBF709FD53EC192BFBF70BFD52
:1049900053EC1A2BFBF701FD53EC182BFBF7FDFC36
:1049A00041EC180B53EC1E2B51EC1B0BFBF7FBFCE3
:1049B00053EC182BFBF7F1FC2EE753EC1C2B51ECBE
:1049C000180BFBF7EAFC53EC192BFBF7ECFC53EC50
:1049D000182BFBF7E5FC1FE70000F07F000000004C
:1049E0000000000000005043645F09000000000068
:1049F000000000000000F03F763C7935EF39EA3DD9
:104A00000000E0FE422EE63F208F02000000000082
:104A1000555555555555D53F000000000000E03F65
:104A2000000000000000004086EBF9FFA28D0200AC
:104A3000988D020000B52DED048BB0EE409AF0EE9B
:104A4000609A83B051EC190BFBF7D7FE41EC180BC1
:104A500018EE100A18EE901A8DED008B002818BF82
:104A60000120084320F00040C0F17F6000F1E040E9
:104A7000C00F14D019EE101A19EE900A8DED009B9C
:104A8000002918BF0121084320F00040C0F17F60D9
:104A900000F1E040C00F04BF012000F0E1F8B0EEEB
:104AA000480A03B0F0EE680ABDEC048B00BD70B597
:104AB00004462DED028B4D1E00EBC500B0EE408A82
:104AC000F0EE608A90ED000B35F0060017D053EC45
:104AD000182B51EC100BFBF766FC41EC100B6D1E14
:104AE00004EBC50090ED001B51EC100B53EC112BA7
:104AF000FBF7B2FB41EC100B35F00600E7D1022DBD
:104B000036D0042D1CD0062D1CBFBDEC028B70BD11
:104B100053EC182B51EC100BFBF745FC94ED0A1BE2
:104B200053EC112BFBF798FB53EC182BFBF73BFCDA
:104B300094ED081B53EC112BFBF78EFB41EC100B93
:104B400053EC182B51EC100BFBF72DFC94ED061BCE
:104B500053EC112BFBF780FB53EC182BFBF723FCDA
:104B600094ED040B53EC102BFBF776FB41EC100B90
:104B700053EC182B51EC100BFBF715FC94ED021BBA
:104B800053EC112BFBF768FB53EC182BFBF70BFCDA
:104B900094ED001B53EC112BFBF75EFBBDEC028B7D
:104BA00041EC100B70BD00009FED070B10B553ECEE
:104BB000102B9FED070B51EC100BFBF766FC41EC43
:104BC000100B10BD000000000000000000000000FD
:104BD000000000000000F03F10B553EC102B51EC2A
:104BE000100BFBF739FB41EC100B10BD10B553EC6B
:104BF000112B51EC100BFBF72FFB41EC100B10BDF0
:104C00009FED050B10B553EC102B51EC100BFBF77F
:104C10003CFC41EC100B10BD000000000000000047
:104C20009FED050B10B553EC102B51EC100BFBF75F
:104C3000BAFB41EC100B10BD00000000000000109A
:104C400002E008C8121F08C1002AFAD17047704755
:104C5000002001E001C1121F002AFBD170470000B3
:104C60000149086070470000480200202DE9F0412A
:104C700016460F460446002503E03946B047641C3B
:104C80006D1C20780028F8D12846BDE8F0810A681C
:104C9000531C0B601070704770B586B005460E4609
:104CA00000200590049000249B4800210160818031
:104CB0009A48016081809A4801608180994801602A
:104CC000818004A998480BF064FC9DF8100000282E
:104CD0007DDD05A994480BF07AFB12E103A9924807
:104CE0000BF0D0FB9DF80C00012871D0022870D188
:104CF0008E4800210160818001468B480BF0B6FB95
:104D00008A49B1F900000BF079FC894880ED000A6E
:104D10008649B1F902000BF071FC854880ED010A6B
:104D20008249B1F904000BF069FC814880ED020A68
:104D300090ED000A7F48D0ED000AB4EE600AF1EE73
:104D400010FA16D17A4890ED010A7A48D0ED010A9E
:104D5000B4EE600AF1EE10FA0BD1754890ED020A3C
:104D60007448D0ED020AB4EE600AF1EE10FA00D1F8
:104D7000C6E0002424E0684830F914006B4931F99A
:104D80001410884203DB644830F8140028B96748DF
:104D900030F81400604921F81400604830F914001C
:104DA000624931F91410884203DC5C4830F8140081
:104DB00028B95E4830F81400584921F81400641CE2
:104DC000032CD8DB5A4890ED000A5A4802E0A0E0D4
:104DD0000FE08DE080ED000A554890ED010A55483E
:104DE00080ED010A524890ED020A524880ED020A15
:104DF00086E0514800210160818001464A480BF05D
:104E000035FB4D49B1F900000BF0ECFB4B4880ED50
:104E1000000A4949B1F902000BF0E4FB474880ED74
:104E2000010A4549B1F904000BF0DCFB434880ED71
:104E3000020A90ED000A4248D0ED000AB4EE600A82
:104E4000F1EE10FA16D13D4890ED010A3C48D0ED44
:104E5000010AB4EE600AF1EE10FA0BD1374890ED7A
:104E6000020A3748D0ED020AB4EE600AF1EE10FAF9
:104E700000D145E0002424E0294830F914002E49EF
:104E800031F91410884203DB254830F8140028B9A2
:104E9000294830F81400224921F81400214830F93B
:104EA0001400254931F91410884203DC1D4830F8FC
:104EB000140028B9204830F814001A4921F81400C9
:104EC000641C032CD8DB0AF0B5FF1C4890ED000AE7
:104ED0001B4880ED000A194890ED010A184880ED42
:104EE000010A164890ED020A154880ED020A07E013
:104EF00000200190029001A90B480BF0B7FA00BF07
:104F000000BFBDF81410481E80B2059000297FF440
:104F1000E5AE002006B070BD960000209C00002089
:104F2000A6000020AC000020B8060020B60000203B
:104F30003406002040060020BC0000204C06002063
:104F4000AC06002000B5052308220949094800F0F5
:104F500025F80523042206494031074800F01EF8D1
:104F60000523012202496031044800F017F800BD12
:104F7000DE3A00205C3A0020AC3A0020D43A00200F
:104F8000014600200D2904DA034A02EBC102D08851
:104F900000E0002070470000DE3A00202DE9F047D5
:104FA00004460D461E464FF000080027BC46B94691
:104FB0000023002043E04FF0000834F8107034F86C
:104FC00010C00023994600211CE001FB020A34F8BE
:104FD0001AA0BA4503DD01FB020A34F81A7001FB7E
:104FE000020A34F81AA0E24503DA01FB020A34F897
:104FF0001AC001FB020A34F81AA0534401F1010A55
:105000000AF0FF01B142E0DBDB1BA3EB0C03A6F1CE
:10501000020AB3FBFAFA1FFA8AF925F8308005EB89
:10502000C00AAAF8027005EBC00AAAF804C005EB92
:10503000C00AAAF8069000F1010A0AF0FF009042A7
:10504000B9DBBDE8F08710B541EC100BFFF7ACF809
:1050500051EC100B10BD10B5014600BF40F60663C1
:105060004B4303EB430404EBC300C31700EB1353A0
:105070001A1390B210BD70B5038804880288002509
:105080000021012110E030F811609E4201DD30F86E
:10509000113030F81160A64201DA30F8114030F8D2
:1050A000116032444E1CF1B20A29ECDBD21A121BF9
:1050B000C2F3CF0503834483858370BD0148808B91
:1050C00070470000463B0020064800210160416017
:1050D0000181002003498882C8820883488388832D
:1050E00070470000463B002070B5064600240025AE
:1050F0000020FFF745FF05462846FFF7ACFF0446B2
:105100000A48C482818A808A401C084A90821046DC
:1051100020F81140808A0A2190FBF1F201FB120075
:10512000024988820846FFF7A6FF70BD463B002073
:1051300010B52F210148FBF764F810BD62C50120AE
:105140000146D1F8020070472DE9F34F84B00A46BA
:10515000F8490026002300240020039002900190CB
:105160008246002584468046002781460090D2F87A
:105170000200002874D0D2F81200400800B2088063
:10518000D2F81600400800B24880D2F81200C01DC4
:10519000C0F3CF04E01C4FEAE07B00EB9B7B4FEABF
:1051A000AB044FF6FF7000EA8400088100BF0FE0F7
:1051B000002309E0FF2006EB460BDFF87CE3F34415
:1051C0000BF80300581C83B2032BF3DB701C86B270
:1051D000032EEDDB888920B9002701264FF0020A53
:1051E00013E0B1F80CB0D2F81600401E834506D18A
:1051F0008889401E87B200264FF0020A05E08889A0
:10520000401E87B200264FF0030AB1F80AB0D2F868
:105210001200BBFBF0FE00FB1EB0488148894FEA3C
:10522000E07B00EB5B7B4FEAEB0323B94FF0000917
:105230000123022512E0D2F812004FF0010BCBEB54
:10524000D000984205D1581E1FFA80F9002302258C
:1052500004E0581E1FFA80F900230325B44635E008
:1052600093E10024984629E0049888B1088907FB57
:10527000009000EB040B02F13E0010F80B00C0435D
:105280000CEB4C0BDFF8B0E2F3440BF808000FE036
:10529000088907FB009000EB040B02F13E0010F8B8
:1052A0000B000CEB4C0BDFF890E2F3440BF808001A
:1052B000601C84B208F101001FFA80F8A845D3DB16
:1052C000781C87B20CF101001FFA80FCD445C8DBC2
:1052D00048894FEAE07B00EB5B7B4FEAEB0BA0EBEE
:1052E000CB0B1FFA8BF31BB94FF0000A072502E026
:1052F0004FF0010A1D46002399462BE0002711E0DC
:1053000007EB4700DFF830B2584410F80A004FF0BE
:10531000800B4BFA05FB00EA0B040CB9581C83B256
:10532000781C87B2032FEBDB681C85B228464FEA56
:10533000E57B05EB5B7B4FEAEB0BA5EBCB0B1FFA99
:105340008BF51DB90AF101001FFA80FA09F101007D
:105350001FFA80F9B9F1030FD0DB8B82B1F80CB0E2
:10536000D2F8160083456FD291F82E0000286CD138
:10537000B1F80AB0D2F81200BBFBF0FE00FB1EB081
:10538000488148894FEAE07B00EB5B7B4FEAEB0604
:10539000049858B18889B1F808B000FB0B6B02F192
:1053A0003E0010F80B00C04384B208E08889B1F8D1
:1053B00008B000FB0B6B02F13E0010F80B4048896F
:1053C0004FEAE07B00EB5B7B4FEAEB0BA0EBCB0BF8
:1053D0001FFA8BF680203041044014B10020C881B0
:1053E00004E00120C881888A401E88824889B1F87B
:1053F00016B0584507DAC88AB1F82AB0A0EB0B00FE
:1054000000B2088213E04889B1F81AB0584507DDA8
:10541000488BB1F82AB0A0EB0B0000B2088206E07E
:105420004889B1F82AB0A0EB0B0000B20882888945
:10543000B1F818B0584509DA088BB1F82CB0A0EBD8
:105440000B0000B2488215E02CE02CE08889B1F80E
:105450001CB0584507DD888BB1F82CB0A0EB0B00D1
:1054600000B2488206E08889B1F82CB0A0EB0B00AE
:1054700000B248824889401C4881B1F80AB0D2F88D
:10548000120083457ED3B1F80CB0D2F81600BBFBF6
:10549000F0FE00FB1EB08881508A401E488101202A
:1054A00081F82E006EE0B1F80AB0D2F81200BBFB12
:1054B000F0FE00FB1EB048810020C8814889B1F889
:1054C00016B0584507DAC88AB1F82AB0A0EB0B002D
:1054D00000B2088213E04889B1F81AB0584507DDD8
:1054E000488BB1F82AB0A0EB0B0000B2088206E0AE
:1054F0004889B1F82AB0A0EB0B0000B20882888975
:10550000B1F818B0584507DA088BB1F82CB0A0EB09
:105510000B0000B2488218E08889B1F81CB05845E9
:105520000CDD888BB1F82CB0A0EB0B0000B24882E8
:105530000BE0000062C501205AC601208889B1F83D
:105540002CB0A0EB0B0000B248824889002809DD8E
:1055500048890A2803DB48890A38488112E000207C
:1055600048810FE08889401C8881B1F80CB0D2F8DE
:105570001600BBFBF0FE00FB1EB0888100204881B6
:1055800081F82E000120009001E00020009000989A
:1055900006B0BDE8F08F00002DE9F34F89B00A4650
:1055A00092490027002400250023002600200890AF
:1055B0008346079006900590049003900290019016
:1055C00000908446804681468246D2F80200002838
:1055D0007DD0D2F81200400800B20190D2F8160037
:1055E000400800B20090D2F81200C01DC0F3CF05F1
:1055F000E81C4FEAE07E00EB9E7E4FEAAE054FF6D8
:10560000FF7000EA8500088100BF00BF00BF00BF37
:1056100000BF51E0002349E018464FEAE37E03EB68
:105620005E7ECEF3CF074FEAE37E03EB5E7E4FEA6A
:10563000EE0EA3EBCE0E1FFA8EF4099848B108893E
:1056400006FB007002F13E0E1EF80000C04385B25A
:1056500006E0088906FB007002F13E0E1EF80050BD
:10566000802020410540FDB9BCF1000F01D19C46CE
:1056700002E0634500DA9C46B9F1000F01D1B14662
:1056800002E04E4500DAB146B8F1000F01D198466C
:1056900002E0434500DD9846BAF1000F01D1B24661
:1056A00002E0564500DDB246581C83B2D2F8120023
:1056B0009842B1D8701C86B2D2F81600B042A9D870
:1056C0000020089008EB0C0000EBD07E00E009E021
:1056D000CEF34F0B0AEB090000EBD07ECEF34F0E5A
:1056E000CDF81CE0A1F816C0A1F81890A1F81A8016
:1056F000A1F81CA00FFA8BF04885079800B28885A6
:10570000D2F8020000286ED0D2F81200C01DC0F3FB
:10571000CF05E81C4FEAE07E00EB9E7E4FEAAE0527
:105720004FF6FF7000EA8500088100200883888317
:10573000002731E0002429E020464FEAE47E04EB14
:105740005E7ECEF3CF0B088907FB00B002F13E0E60
:105750001EF8005020464FEAE47E04EB5E7E4FEADE
:10576000EE0EA4EBCE0E1FFA8EFECDF81CE04FF02D
:10577000800E07984EFA00F005402DB9088B00B94D
:105780000F838F83508A84B2601C84B2D2F81200D7
:10579000A042D1D8781C87B2D2F81600B842C9D836
:1057A000088B002802DD088B401E0883888BD2F806
:1057B00016E0704502D2888B401C88831A3131F87C
:1057C000020CD2F812E000FB0EF048604888D2F8D4
:1057D00012E000FB0EF088608868D1F804E0A0EBCE
:1057E0000E00C8601A390BB0BDE8F08F62C5012009
:1057F00010B50446204600F001F810BD2DE9F04F29
:1058000085B0064600229346CDF810B0914600219F
:105810000023002080460027002400258246CDF882
:105820000CB08446CDF808B0DFF858B5CDF804B018
:10583000D6F802B0BBF1000F79D0D6F812B04FEA1B
:105840005B0B0FFA8BF4D6F816B04FEA5B0B0FFA2E
:105850008BF5D6F812B00BF1070BCBF3CF0909F19A
:10586000030B4FEAEB7ECDF800B00BEB9E7B4FEACB
:10587000AB094FF6FF7B0BEA890EDDF804B0ABF8FD
:1058800008E000BF00BF8346CDF80CB0CDF808B0EB
:1058900000BF5EE0002154E08B464FEAE17E01EB61
:1058A0005E7ECEF3CF024FEAE17E01EB5E7E4FEAF1
:1058B000EE0EA1EBCE0E1FFA8EFECDF810E0DDF855
:1058C00004B0BBF808B003FB0B2B06F13E0E1EF82C
:1058D0000B904FF0800EDDF810B04EFA0BFB0BEA88
:1058E0000909B9F1000F28D1BAF1000F01D18A4698
:1058F00002E0514500DA8A46BCF1000F01D19C4616
:1059000002E0634500DA9C46DDF80CB0BBF1000F05
:1059100001D1039104E0DDF80CB0594500DD03919D
:10592000DDF808B0BBF1000F02D1029305E026E2DA
:10593000DDF808B05B4500DD029301F1010B1FFAB1
:105940008BF1D6F812B08B45A6D803F1010B1FFAE4
:105950008BF3D6F816B09B459CD80020DDF80CB030
:10596000ABEB0A0BCDF800B00BEBDB7B4FEA6B0B1C
:105970000BF1020B4FF0050E9BFBFEFB1FFA8BF8A1
:10598000DDF808B0ABEB0C0BCDF800B00BEBDB7B1C
:105990004FEA6B0B0BF1020B9BFBFEFB1FFA8BF725
:1059A00008EB880BA4EB0B0B1FFA8BFA07EB870BAA
:1059B000A5EB0B0B1FFA8BFC08EB880BA3441FFA1B
:1059C0008BFBCDF80CB007EB870BAB441FFA8BFBBE
:1059D000CDF808B0002218E04FF0010EDFF8A8B3B0
:1059E0000BF800E04FF0000BDFF8A0E32EF810B04A
:1059F000DE46DFF89CB32BF810E000F1010B1FFA34
:105A00008BF002F1010B1FFA8BF2012AE4DB00227A
:105A100073E04FF0010EDFF870B30BF800E06FF0A9
:105A2000040BDFF868E32EF810B0DE46DFF860B351
:105A30002BF810E000F1010B1FFA8BF04FF0010E74
:105A4000DFF844B30BF800E06FF0040BDFF83CE341
:105A50002EF810B04FF0050EDFF834B32BF810E03D
:105A600000F1010B1FFA8BF04FF0010EDFF818B3B5
:105A70000BF800E04FF0050BDFF810E32EF810B044
:105A8000DE46DFF80CB32BF810E000F1010B1FFA33
:105A90008BF000F1010B1FFA8BF04FF0010EDFF8D5
:105AA000E8B20BF800E04FF0050BDFF8E0E22EF86B
:105AB00010B06FF0040EDFF8D8B22BF810E000F150
:105AC000010B1FFA8BF04FF0010EDFF8BCB20BF8A0
:105AD00000E04FF0000BDFF8B4E22EF810B06FF0EA
